{
  "contractName": "EnerZToken",
  "abi": [
    {
      "constant": true,
      "inputs": [],
      "name": "name",
      "outputs": [
        {
          "name": "",
          "type": "string"
        }
      ],
      "payable": false,
      "stateMutability": "view",
      "type": "function",
      "signature": "0x06fdde03"
    },
    {
      "constant": false,
      "inputs": [
        {
          "name": "spender",
          "type": "address"
        },
        {
          "name": "value",
          "type": "uint256"
        }
      ],
      "name": "approve",
      "outputs": [
        {
          "name": "",
          "type": "bool"
        }
      ],
      "payable": false,
      "stateMutability": "nonpayable",
      "type": "function",
      "signature": "0x095ea7b3"
    },
    {
      "constant": true,
      "inputs": [],
      "name": "totalSupply",
      "outputs": [
        {
          "name": "",
          "type": "uint256"
        }
      ],
      "payable": false,
      "stateMutability": "view",
      "type": "function",
      "signature": "0x18160ddd"
    },
    {
      "constant": false,
      "inputs": [
        {
          "name": "from",
          "type": "address"
        },
        {
          "name": "to",
          "type": "address"
        },
        {
          "name": "value",
          "type": "uint256"
        }
      ],
      "name": "transferFrom",
      "outputs": [
        {
          "name": "",
          "type": "bool"
        }
      ],
      "payable": false,
      "stateMutability": "nonpayable",
      "type": "function",
      "signature": "0x23b872dd"
    },
    {
      "constant": true,
      "inputs": [],
      "name": "decimals",
      "outputs": [
        {
          "name": "",
          "type": "uint8"
        }
      ],
      "payable": false,
      "stateMutability": "view",
      "type": "function",
      "signature": "0x313ce567"
    },
    {
      "constant": false,
      "inputs": [
        {
          "name": "spender",
          "type": "address"
        },
        {
          "name": "addedValue",
          "type": "uint256"
        }
      ],
      "name": "increaseAllowance",
      "outputs": [
        {
          "name": "success",
          "type": "bool"
        }
      ],
      "payable": false,
      "stateMutability": "nonpayable",
      "type": "function",
      "signature": "0x39509351"
    },
    {
      "constant": false,
      "inputs": [],
      "name": "unpause",
      "outputs": [],
      "payable": false,
      "stateMutability": "nonpayable",
      "type": "function",
      "signature": "0x3f4ba83a"
    },
    {
      "constant": false,
      "inputs": [
        {
          "name": "to",
          "type": "address"
        },
        {
          "name": "value",
          "type": "uint256"
        }
      ],
      "name": "mint",
      "outputs": [
        {
          "name": "",
          "type": "bool"
        }
      ],
      "payable": false,
      "stateMutability": "nonpayable",
      "type": "function",
      "signature": "0x40c10f19"
    },
    {
      "constant": false,
      "inputs": [
        {
          "name": "value",
          "type": "uint256"
        }
      ],
      "name": "burn",
      "outputs": [],
      "payable": false,
      "stateMutability": "nonpayable",
      "type": "function",
      "signature": "0x42966c68"
    },
    {
      "constant": true,
      "inputs": [
        {
          "name": "account",
          "type": "address"
        }
      ],
      "name": "isPauser",
      "outputs": [
        {
          "name": "",
          "type": "bool"
        }
      ],
      "payable": false,
      "stateMutability": "view",
      "type": "function",
      "signature": "0x46fbf68e"
    },
    {
      "constant": true,
      "inputs": [],
      "name": "paused",
      "outputs": [
        {
          "name": "",
          "type": "bool"
        }
      ],
      "payable": false,
      "stateMutability": "view",
      "type": "function",
      "signature": "0x5c975abb"
    },
    {
      "constant": false,
      "inputs": [],
      "name": "renouncePauser",
      "outputs": [],
      "payable": false,
      "stateMutability": "nonpayable",
      "type": "function",
      "signature": "0x6ef8d66d"
    },
    {
      "constant": true,
      "inputs": [
        {
          "name": "owner",
          "type": "address"
        }
      ],
      "name": "balanceOf",
      "outputs": [
        {
          "name": "",
          "type": "uint256"
        }
      ],
      "payable": false,
      "stateMutability": "view",
      "type": "function",
      "signature": "0x70a08231"
    },
    {
      "constant": false,
      "inputs": [
        {
          "name": "from",
          "type": "address"
        },
        {
          "name": "value",
          "type": "uint256"
        }
      ],
      "name": "burnFrom",
      "outputs": [],
      "payable": false,
      "stateMutability": "nonpayable",
      "type": "function",
      "signature": "0x79cc6790"
    },
    {
      "constant": false,
      "inputs": [
        {
          "name": "account",
          "type": "address"
        }
      ],
      "name": "addPauser",
      "outputs": [],
      "payable": false,
      "stateMutability": "nonpayable",
      "type": "function",
      "signature": "0x82dc1ec4"
    },
    {
      "constant": false,
      "inputs": [],
      "name": "pause",
      "outputs": [],
      "payable": false,
      "stateMutability": "nonpayable",
      "type": "function",
      "signature": "0x8456cb59"
    },
    {
      "constant": true,
      "inputs": [],
      "name": "symbol",
      "outputs": [
        {
          "name": "",
          "type": "string"
        }
      ],
      "payable": false,
      "stateMutability": "view",
      "type": "function",
      "signature": "0x95d89b41"
    },
    {
      "constant": false,
      "inputs": [
        {
          "name": "account",
          "type": "address"
        }
      ],
      "name": "addMinter",
      "outputs": [],
      "payable": false,
      "stateMutability": "nonpayable",
      "type": "function",
      "signature": "0x983b2d56"
    },
    {
      "constant": false,
      "inputs": [],
      "name": "renounceMinter",
      "outputs": [],
      "payable": false,
      "stateMutability": "nonpayable",
      "type": "function",
      "signature": "0x98650275"
    },
    {
      "constant": false,
      "inputs": [
        {
          "name": "spender",
          "type": "address"
        },
        {
          "name": "subtractedValue",
          "type": "uint256"
        }
      ],
      "name": "decreaseAllowance",
      "outputs": [
        {
          "name": "success",
          "type": "bool"
        }
      ],
      "payable": false,
      "stateMutability": "nonpayable",
      "type": "function",
      "signature": "0xa457c2d7"
    },
    {
      "constant": false,
      "inputs": [
        {
          "name": "to",
          "type": "address"
        },
        {
          "name": "value",
          "type": "uint256"
        }
      ],
      "name": "transfer",
      "outputs": [
        {
          "name": "",
          "type": "bool"
        }
      ],
      "payable": false,
      "stateMutability": "nonpayable",
      "type": "function",
      "signature": "0xa9059cbb"
    },
    {
      "constant": true,
      "inputs": [
        {
          "name": "account",
          "type": "address"
        }
      ],
      "name": "isMinter",
      "outputs": [
        {
          "name": "",
          "type": "bool"
        }
      ],
      "payable": false,
      "stateMutability": "view",
      "type": "function",
      "signature": "0xaa271e1a"
    },
    {
      "constant": true,
      "inputs": [
        {
          "name": "owner",
          "type": "address"
        },
        {
          "name": "spender",
          "type": "address"
        }
      ],
      "name": "allowance",
      "outputs": [
        {
          "name": "",
          "type": "uint256"
        }
      ],
      "payable": false,
      "stateMutability": "view",
      "type": "function",
      "signature": "0xdd62ed3e"
    },
    {
      "inputs": [
        {
          "name": "_name",
          "type": "string"
        },
        {
          "name": "_symbol",
          "type": "string"
        },
        {
          "name": "_decimals",
          "type": "uint8"
        }
      ],
      "payable": false,
      "stateMutability": "nonpayable",
      "type": "constructor",
      "signature": "constructor"
    },
    {
      "anonymous": false,
      "inputs": [
        {
          "indexed": false,
          "name": "account",
          "type": "address"
        }
      ],
      "name": "Paused",
      "type": "event",
      "signature": "0x62e78cea01bee320cd4e420270b5ea74000d11b0c9f74754ebdbfc544b05a258"
    },
    {
      "anonymous": false,
      "inputs": [
        {
          "indexed": false,
          "name": "account",
          "type": "address"
        }
      ],
      "name": "Unpaused",
      "type": "event",
      "signature": "0x5db9ee0a495bf2e6ff9c91a7834c1ba4fdd244a5e8aa4e537bd38aeae4b073aa"
    },
    {
      "anonymous": false,
      "inputs": [
        {
          "indexed": true,
          "name": "account",
          "type": "address"
        }
      ],
      "name": "PauserAdded",
      "type": "event",
      "signature": "0x6719d08c1888103bea251a4ed56406bd0c3e69723c8a1686e017e7bbe159b6f8"
    },
    {
      "anonymous": false,
      "inputs": [
        {
          "indexed": true,
          "name": "account",
          "type": "address"
        }
      ],
      "name": "PauserRemoved",
      "type": "event",
      "signature": "0xcd265ebaf09df2871cc7bd4133404a235ba12eff2041bb89d9c714a2621c7c7e"
    },
    {
      "anonymous": false,
      "inputs": [
        {
          "indexed": true,
          "name": "account",
          "type": "address"
        }
      ],
      "name": "MinterAdded",
      "type": "event",
      "signature": "0x6ae172837ea30b801fbfcdd4108aa1d5bf8ff775444fd70256b44e6bf3dfc3f6"
    },
    {
      "anonymous": false,
      "inputs": [
        {
          "indexed": true,
          "name": "account",
          "type": "address"
        }
      ],
      "name": "MinterRemoved",
      "type": "event",
      "signature": "0xe94479a9f7e1952cc78f2d6baab678adc1b772d936c6583def489e524cb66692"
    },
    {
      "anonymous": false,
      "inputs": [
        {
          "indexed": true,
          "name": "from",
          "type": "address"
        },
        {
          "indexed": true,
          "name": "to",
          "type": "address"
        },
        {
          "indexed": false,
          "name": "value",
          "type": "uint256"
        }
      ],
      "name": "Transfer",
      "type": "event",
      "signature": "0xddf252ad1be2c89b69c2b068fc378daa952ba7f163c4a11628f55a4df523b3ef"
    },
    {
      "anonymous": false,
      "inputs": [
        {
          "indexed": true,
          "name": "owner",
          "type": "address"
        },
        {
          "indexed": true,
          "name": "spender",
          "type": "address"
        },
        {
          "indexed": false,
          "name": "value",
          "type": "uint256"
        }
      ],
      "name": "Approval",
      "type": "event",
      "signature": "0x8c5be1e5ebec7d5bd14f71427d1e84f3dd0314c0f7b2291e5b200ac8c7c3b925"
    }
  ],
  "bytecode": "0x60806040523480156200001157600080fd5b50604051620013b4380380620013b4833981018060405260608110156200003757600080fd5b8101908080516401000000008111156200005057600080fd5b820160208101848111156200006457600080fd5b81516401000000008111828201871017156200007f57600080fd5b505092919060200180516401000000008111156200009c57600080fd5b82016020810184811115620000b057600080fd5b8151640100000000811182820187101715620000cb57600080fd5b50506020909101519092509050828282620000ef3364010000000062000159810204565b6200010333640100000000620001ab810204565b6005805460ff1916905582516200012290600690602086019062000290565b5081516200013890600790602085019062000290565b506008805460ff191660ff9290921691909117905550620003359350505050565b6200017460038264010000000062000fd5620001fd82021704565b604051600160a060020a038216907f6ae172837ea30b801fbfcdd4108aa1d5bf8ff775444fd70256b44e6bf3dfc3f690600090a250565b620001c660048264010000000062000fd5620001fd82021704565b604051600160a060020a038216907f6719d08c1888103bea251a4ed56406bd0c3e69723c8a1686e017e7bbe159b6f890600090a250565b600160a060020a03811615156200021357600080fd5b62000228828264010000000062000258810204565b156200023357600080fd5b600160a060020a0316600090815260209190915260409020805460ff19166001179055565b6000600160a060020a03821615156200027057600080fd5b50600160a060020a03166000908152602091909152604090205460ff1690565b828054600181600116156101000203166002900490600052602060002090601f016020900481019282601f10620002d357805160ff191683800117855562000303565b8280016001018555821562000303579182015b8281111562000303578251825591602001919060010190620002e6565b506200031192915062000315565b5090565b6200033291905b808211156200031157600081556001016200031c565b90565b61106f80620003456000396000f3fe6080604052600436106101325763ffffffff7c010000000000000000000000000000000000000000000000000000000060003504166306fdde038114610137578063095ea7b3146101c157806318160ddd1461020e57806323b872dd14610235578063313ce5671461027857806339509351146102a35780633f4ba83a146102dc57806340c10f19146102f357806342966c681461032c57806346fbf68e146103565780635c975abb146103895780636ef8d66d1461039e57806370a08231146103b357806379cc6790146103e657806382dc1ec41461041f5780638456cb591461045257806395d89b4114610467578063983b2d561461047c57806398650275146104af578063a457c2d7146104c4578063a9059cbb146104fd578063aa271e1a14610536578063dd62ed3e14610569575b600080fd5b34801561014357600080fd5b5061014c6105a4565b6040805160208082528351818301528351919283929083019185019080838360005b8381101561018657818101518382015260200161016e565b50505050905090810190601f1680156101b35780820380516001836020036101000a031916815260200191505b509250505060405180910390f35b3480156101cd57600080fd5b506101fa600480360360408110156101e457600080fd5b50600160a060020a03813516906020013561063a565b604080519115158252519081900360200190f35b34801561021a57600080fd5b5061022361065e565b60408051918252519081900360200190f35b34801561024157600080fd5b506101fa6004803603606081101561025857600080fd5b50600160a060020a03813581169160208101359091169060400135610664565b34801561028457600080fd5b5061028d61068a565b6040805160ff9092168252519081900360200190f35b3480156102af57600080fd5b506101fa600480360360408110156102c657600080fd5b50600160a060020a038135169060200135610693565b3480156102e857600080fd5b506102f16106b0565b005b3480156102ff57600080fd5b506101fa6004803603604081101561031657600080fd5b50600160a060020a038135169060200135610714565b34801561033857600080fd5b506102f16004803603602081101561034f57600080fd5b503561073d565b34801561036257600080fd5b506101fa6004803603602081101561037957600080fd5b5035600160a060020a031661074a565b34801561039557600080fd5b506101fa610763565b3480156103aa57600080fd5b506102f161076c565b3480156103bf57600080fd5b50610223600480360360208110156103d657600080fd5b5035600160a060020a0316610777565b3480156103f257600080fd5b506102f16004803603604081101561040957600080fd5b50600160a060020a038135169060200135610792565b34801561042b57600080fd5b506102f16004803603602081101561044257600080fd5b5035600160a060020a03166107a0565b34801561045e57600080fd5b506102f16107bd565b34801561047357600080fd5b5061014c610823565b34801561048857600080fd5b506102f16004803603602081101561049f57600080fd5b5035600160a060020a0316610884565b3480156104bb57600080fd5b506102f16108a1565b3480156104d057600080fd5b506101fa600480360360408110156104e757600080fd5b50600160a060020a0381351690602001356108aa565b34801561050957600080fd5b506101fa6004803603604081101561052057600080fd5b50600160a060020a0381351690602001356108c7565b34801561054257600080fd5b506101fa6004803603602081101561055957600080fd5b5035600160a060020a03166108e4565b34801561057557600080fd5b506102236004803603604081101561058c57600080fd5b50600160a060020a03813581169160200135166108f7565b60068054604080516020601f60026000196101006001881615020190951694909404938401819004810282018101909252828152606093909290918301828280156106305780601f1061060557610100808354040283529160200191610630565b820191906000526020600020905b81548152906001019060200180831161061357829003601f168201915b5050505050905090565b60055460009060ff161561064d57600080fd5b6106578383610922565b9392505050565b60025490565b60055460009060ff161561067757600080fd5b61068284848461098e565b949350505050565b60085460ff1690565b60055460009060ff16156106a657600080fd5b6106578383610a45565b6106b93361074a565b15156106c457600080fd5b60055460ff1615156106d557600080fd5b6005805460ff191690556040805133815290517f5db9ee0a495bf2e6ff9c91a7834c1ba4fdd244a5e8aa4e537bd38aeae4b073aa9181900360200190a1565b600061071f336108e4565b151561072a57600080fd5b6107348383610ae3565b50600192915050565b6107473382610b8d565b50565b600061075d60048363ffffffff610c3616565b92915050565b60055460ff1690565b61077533610c6d565b565b600160a060020a031660009081526020819052604090205490565b61079c8282610cb5565b5050565b6107a93361074a565b15156107b457600080fd5b61074781610d65565b6107c63361074a565b15156107d157600080fd5b60055460ff16156107e157600080fd5b6005805460ff191660011790556040805133815290517f62e78cea01bee320cd4e420270b5ea74000d11b0c9f74754ebdbfc544b05a2589181900360200190a1565b60078054604080516020601f60026000196101006001881615020190951694909404938401819004810282018101909252828152606093909290918301828280156106305780601f1061060557610100808354040283529160200191610630565b61088d336108e4565b151561089857600080fd5b61074781610dad565b61077533610df5565b60055460009060ff16156108bd57600080fd5b6106578383610e3d565b60055460009060ff16156108da57600080fd5b6106578383610e88565b600061075d60038363ffffffff610c3616565b600160a060020a03918216600090815260016020908152604080832093909416825291909152205490565b6000600160a060020a038316151561093957600080fd5b336000818152600160209081526040808320600160a060020a0388168085529083529281902086905580518681529051929392600080516020611024833981519152929181900390910190a350600192915050565b600160a060020a03831660009081526001602090815260408083203384529091528120546109c2908363ffffffff610e9516565b600160a060020a03851660009081526001602090815260408083203384529091529020556109f1848484610eaa565b600160a060020a038416600081815260016020908152604080832033808552908352928190205481519081529051929392600080516020611024833981519152929181900390910190a35060019392505050565b6000600160a060020a0383161515610a5c57600080fd5b336000908152600160209081526040808320600160a060020a0387168452909152902054610a90908363ffffffff610f7716565b336000818152600160209081526040808320600160a060020a038916808552908352928190208590558051948552519193600080516020611024833981519152929081900390910190a350600192915050565b600160a060020a0382161515610af857600080fd5b600254610b0b908263ffffffff610f7716565b600255600160a060020a038216600090815260208190526040902054610b37908263ffffffff610f7716565b600160a060020a0383166000818152602081815260408083209490945583518581529351929391927fddf252ad1be2c89b69c2b068fc378daa952ba7f163c4a11628f55a4df523b3ef9281900390910190a35050565b600160a060020a0382161515610ba257600080fd5b600254610bb5908263ffffffff610e9516565b600255600160a060020a038216600090815260208190526040902054610be1908263ffffffff610e9516565b600160a060020a038316600081815260208181526040808320949094558351858152935191937fddf252ad1be2c89b69c2b068fc378daa952ba7f163c4a11628f55a4df523b3ef929081900390910190a35050565b6000600160a060020a0382161515610c4d57600080fd5b50600160a060020a03166000908152602091909152604090205460ff1690565b610c7e60048263ffffffff610f8916565b604051600160a060020a038216907fcd265ebaf09df2871cc7bd4133404a235ba12eff2041bb89d9c714a2621c7c7e90600090a250565b600160a060020a0382166000908152600160209081526040808320338452909152902054610ce9908263ffffffff610e9516565b600160a060020a0383166000908152600160209081526040808320338452909152902055610d178282610b8d565b600160a060020a038216600081815260016020908152604080832033808552908352928190205481519081529051929392600080516020611024833981519152929181900390910190a35050565b610d7660048263ffffffff610fd516565b604051600160a060020a038216907f6719d08c1888103bea251a4ed56406bd0c3e69723c8a1686e017e7bbe159b6f890600090a250565b610dbe60038263ffffffff610fd516565b604051600160a060020a038216907f6ae172837ea30b801fbfcdd4108aa1d5bf8ff775444fd70256b44e6bf3dfc3f690600090a250565b610e0660038263ffffffff610f8916565b604051600160a060020a038216907fe94479a9f7e1952cc78f2d6baab678adc1b772d936c6583def489e524cb6669290600090a250565b6000600160a060020a0383161515610e5457600080fd5b336000908152600160209081526040808320600160a060020a0387168452909152902054610a90908363ffffffff610e9516565b6000610734338484610eaa565b600082821115610ea457600080fd5b50900390565b600160a060020a0382161515610ebf57600080fd5b600160a060020a038316600090815260208190526040902054610ee8908263ffffffff610e9516565b600160a060020a038085166000908152602081905260408082209390935590841681522054610f1d908263ffffffff610f7716565b600160a060020a038084166000818152602081815260409182902094909455805185815290519193928716927fddf252ad1be2c89b69c2b068fc378daa952ba7f163c4a11628f55a4df523b3ef92918290030190a3505050565b60008282018381101561065757600080fd5b600160a060020a0381161515610f9e57600080fd5b610fa88282610c36565b1515610fb357600080fd5b600160a060020a0316600090815260209190915260409020805460ff19169055565b600160a060020a0381161515610fea57600080fd5b610ff48282610c36565b15610ffe57600080fd5b600160a060020a0316600090815260209190915260409020805460ff1916600117905556fe8c5be1e5ebec7d5bd14f71427d1e84f3dd0314c0f7b2291e5b200ac8c7c3b925a165627a7a72305820a877742812f0178491940c2a3ede71061471e5c7255d1ac26f7e1c7b08bb23e10029",
  "source": "pragma solidity ^0.5.0;\r\n\r\nimport \"../node_modules/openzeppelin-solidity/contracts/token/ERC20/ERC20.sol\";\r\nimport \"../node_modules/openzeppelin-solidity/contracts/token/ERC20/ERC20Detailed.sol\";\r\nimport \"../node_modules/openzeppelin-solidity/contracts/token/ERC20/ERC20Mintable.sol\";\r\nimport \"../node_modules/openzeppelin-solidity/contracts/token/ERC20/ERC20Burnable.sol\";\r\nimport \"../node_modules/openzeppelin-solidity/contracts/token/ERC20/ERC20Pausable.sol\";\r\n\r\ncontract EnerZToken is ERC20, ERC20Mintable, ERC20Burnable, ERC20Pausable, ERC20Detailed {\r\n    constructor(\r\n        string memory _name, \r\n        string memory _symbol, \r\n        uint8 _decimals\r\n        //address[] memory minters\r\n        ) \r\n        ERC20Burnable()\r\n        ERC20Mintable()\r\n        ERC20Pausable()\r\n        ERC20Detailed(_name, _symbol, _decimals)  \r\n        ERC20()\r\n        public\r\n    {\r\n        \r\n    }\r\n}",
  "sourcePath": "D:/code/enerZToken/contracts/enerZToken.sol",
  "compiler": {
    "name": "solc",
    "version": "0.5.0+commit.1d4f565a.Emscripten.clang"
  },
  "schemaVersion": "3.0.1",
  "updatedAt": "2019-02-07T14:59:32.562Z",
  "devdoc": {
    "methods": {
      "allowance(address,address)": {
        "details": "Function to check the amount of tokens that an owner allowed to a spender.",
        "params": {
          "owner": "address The address which owns the funds.",
          "spender": "address The address which will spend the funds."
        },
        "return": "A uint256 specifying the amount of tokens still available for the spender."
      },
      "balanceOf(address)": {
        "details": "Gets the balance of the specified address.",
        "params": {
          "owner": "The address to query the balance of."
        },
        "return": "An uint256 representing the amount owned by the passed address."
      },
      "burn(uint256)": {
        "details": "Burns a specific amount of tokens.",
        "params": {
          "value": "The amount of token to be burned."
        }
      },
      "burnFrom(address,uint256)": {
        "details": "Burns a specific amount of tokens from the target address and decrements allowance",
        "params": {
          "from": "address The address which you want to send tokens from",
          "value": "uint256 The amount of token to be burned"
        }
      },
      "decimals()": {
        "return": "the number of decimals of the token."
      },
      "mint(address,uint256)": {
        "details": "Function to mint tokens",
        "params": {
          "to": "The address that will receive the minted tokens.",
          "value": "The amount of tokens to mint."
        },
        "return": "A boolean that indicates if the operation was successful."
      },
      "name()": {
        "return": "the name of the token."
      },
      "pause()": {
        "details": "called by the owner to pause, triggers stopped state"
      },
      "paused()": {
        "return": "true if the contract is paused, false otherwise."
      },
      "symbol()": {
        "return": "the symbol of the token."
      },
      "totalSupply()": {
        "details": "Total number of tokens in existence"
      },
      "unpause()": {
        "details": "called by the owner to unpause, returns to normal state"
      }
    }
  },
  "userdoc": {
    "methods": {}
  }
}