{
  "contractName": "EnerZToken",
  "abi": [
    {
      "constant": true,
      "inputs": [],
      "name": "name",
      "outputs": [
        {
          "name": "",
          "type": "string"
        }
      ],
      "payable": false,
      "stateMutability": "view",
      "type": "function",
      "signature": "0x06fdde03"
    },
    {
      "constant": false,
      "inputs": [
        {
          "name": "spender",
          "type": "address"
        },
        {
          "name": "value",
          "type": "uint256"
        }
      ],
      "name": "approve",
      "outputs": [
        {
          "name": "",
          "type": "bool"
        }
      ],
      "payable": false,
      "stateMutability": "nonpayable",
      "type": "function",
      "signature": "0x095ea7b3"
    },
    {
      "constant": true,
      "inputs": [],
      "name": "totalSupply",
      "outputs": [
        {
          "name": "",
          "type": "uint256"
        }
      ],
      "payable": false,
      "stateMutability": "view",
      "type": "function",
      "signature": "0x18160ddd"
    },
    {
      "constant": false,
      "inputs": [
        {
          "name": "from",
          "type": "address"
        },
        {
          "name": "to",
          "type": "address"
        },
        {
          "name": "value",
          "type": "uint256"
        }
      ],
      "name": "transferFrom",
      "outputs": [
        {
          "name": "",
          "type": "bool"
        }
      ],
      "payable": false,
      "stateMutability": "nonpayable",
      "type": "function",
      "signature": "0x23b872dd"
    },
    {
      "constant": true,
      "inputs": [],
      "name": "decimals",
      "outputs": [
        {
          "name": "",
          "type": "uint8"
        }
      ],
      "payable": false,
      "stateMutability": "view",
      "type": "function",
      "signature": "0x313ce567"
    },
    {
      "constant": false,
      "inputs": [
        {
          "name": "spender",
          "type": "address"
        },
        {
          "name": "addedValue",
          "type": "uint256"
        }
      ],
      "name": "increaseAllowance",
      "outputs": [
        {
          "name": "success",
          "type": "bool"
        }
      ],
      "payable": false,
      "stateMutability": "nonpayable",
      "type": "function",
      "signature": "0x39509351"
    },
    {
      "constant": true,
      "inputs": [],
      "name": "_totalSupply",
      "outputs": [
        {
          "name": "",
          "type": "uint256"
        }
      ],
      "payable": false,
      "stateMutability": "view",
      "type": "function",
      "signature": "0x3eaaf86b"
    },
    {
      "constant": false,
      "inputs": [],
      "name": "unpause",
      "outputs": [],
      "payable": false,
      "stateMutability": "nonpayable",
      "type": "function",
      "signature": "0x3f4ba83a"
    },
    {
      "constant": false,
      "inputs": [
        {
          "name": "to",
          "type": "address"
        },
        {
          "name": "value",
          "type": "uint256"
        }
      ],
      "name": "mint",
      "outputs": [
        {
          "name": "",
          "type": "bool"
        }
      ],
      "payable": false,
      "stateMutability": "nonpayable",
      "type": "function",
      "signature": "0x40c10f19"
    },
    {
      "constant": false,
      "inputs": [
        {
          "name": "value",
          "type": "uint256"
        }
      ],
      "name": "burn",
      "outputs": [],
      "payable": false,
      "stateMutability": "nonpayable",
      "type": "function",
      "signature": "0x42966c68"
    },
    {
      "constant": true,
      "inputs": [
        {
          "name": "account",
          "type": "address"
        }
      ],
      "name": "isPauser",
      "outputs": [
        {
          "name": "",
          "type": "bool"
        }
      ],
      "payable": false,
      "stateMutability": "view",
      "type": "function",
      "signature": "0x46fbf68e"
    },
    {
      "constant": true,
      "inputs": [],
      "name": "paused",
      "outputs": [
        {
          "name": "",
          "type": "bool"
        }
      ],
      "payable": false,
      "stateMutability": "view",
      "type": "function",
      "signature": "0x5c975abb"
    },
    {
      "constant": false,
      "inputs": [],
      "name": "renouncePauser",
      "outputs": [],
      "payable": false,
      "stateMutability": "nonpayable",
      "type": "function",
      "signature": "0x6ef8d66d"
    },
    {
      "constant": true,
      "inputs": [
        {
          "name": "owner",
          "type": "address"
        }
      ],
      "name": "balanceOf",
      "outputs": [
        {
          "name": "",
          "type": "uint256"
        }
      ],
      "payable": false,
      "stateMutability": "view",
      "type": "function",
      "signature": "0x70a08231"
    },
    {
      "constant": false,
      "inputs": [
        {
          "name": "from",
          "type": "address"
        },
        {
          "name": "value",
          "type": "uint256"
        }
      ],
      "name": "burnFrom",
      "outputs": [],
      "payable": false,
      "stateMutability": "nonpayable",
      "type": "function",
      "signature": "0x79cc6790"
    },
    {
      "constant": false,
      "inputs": [
        {
          "name": "account",
          "type": "address"
        }
      ],
      "name": "addPauser",
      "outputs": [],
      "payable": false,
      "stateMutability": "nonpayable",
      "type": "function",
      "signature": "0x82dc1ec4"
    },
    {
      "constant": false,
      "inputs": [],
      "name": "pause",
      "outputs": [],
      "payable": false,
      "stateMutability": "nonpayable",
      "type": "function",
      "signature": "0x8456cb59"
    },
    {
      "constant": true,
      "inputs": [],
      "name": "symbol",
      "outputs": [
        {
          "name": "",
          "type": "string"
        }
      ],
      "payable": false,
      "stateMutability": "view",
      "type": "function",
      "signature": "0x95d89b41"
    },
    {
      "constant": false,
      "inputs": [
        {
          "name": "account",
          "type": "address"
        }
      ],
      "name": "addMinter",
      "outputs": [],
      "payable": false,
      "stateMutability": "nonpayable",
      "type": "function",
      "signature": "0x983b2d56"
    },
    {
      "constant": false,
      "inputs": [],
      "name": "renounceMinter",
      "outputs": [],
      "payable": false,
      "stateMutability": "nonpayable",
      "type": "function",
      "signature": "0x98650275"
    },
    {
      "constant": false,
      "inputs": [
        {
          "name": "spender",
          "type": "address"
        },
        {
          "name": "subtractedValue",
          "type": "uint256"
        }
      ],
      "name": "decreaseAllowance",
      "outputs": [
        {
          "name": "success",
          "type": "bool"
        }
      ],
      "payable": false,
      "stateMutability": "nonpayable",
      "type": "function",
      "signature": "0xa457c2d7"
    },
    {
      "constant": false,
      "inputs": [
        {
          "name": "to",
          "type": "address"
        },
        {
          "name": "value",
          "type": "uint256"
        }
      ],
      "name": "transfer",
      "outputs": [
        {
          "name": "",
          "type": "bool"
        }
      ],
      "payable": false,
      "stateMutability": "nonpayable",
      "type": "function",
      "signature": "0xa9059cbb"
    },
    {
      "constant": true,
      "inputs": [
        {
          "name": "account",
          "type": "address"
        }
      ],
      "name": "isMinter",
      "outputs": [
        {
          "name": "",
          "type": "bool"
        }
      ],
      "payable": false,
      "stateMutability": "view",
      "type": "function",
      "signature": "0xaa271e1a"
    },
    {
      "constant": true,
      "inputs": [
        {
          "name": "owner",
          "type": "address"
        },
        {
          "name": "spender",
          "type": "address"
        }
      ],
      "name": "allowance",
      "outputs": [
        {
          "name": "",
          "type": "uint256"
        }
      ],
      "payable": false,
      "stateMutability": "view",
      "type": "function",
      "signature": "0xdd62ed3e"
    },
    {
      "inputs": [
        {
          "name": "_name",
          "type": "string"
        },
        {
          "name": "_symbol",
          "type": "string"
        },
        {
          "name": "_decimals",
          "type": "uint8"
        },
        {
          "name": "_initialSupply",
          "type": "uint256"
        }
      ],
      "payable": false,
      "stateMutability": "nonpayable",
      "type": "constructor",
      "signature": "constructor"
    },
    {
      "anonymous": false,
      "inputs": [
        {
          "indexed": false,
          "name": "account",
          "type": "address"
        }
      ],
      "name": "Paused",
      "type": "event",
      "signature": "0x62e78cea01bee320cd4e420270b5ea74000d11b0c9f74754ebdbfc544b05a258"
    },
    {
      "anonymous": false,
      "inputs": [
        {
          "indexed": false,
          "name": "account",
          "type": "address"
        }
      ],
      "name": "Unpaused",
      "type": "event",
      "signature": "0x5db9ee0a495bf2e6ff9c91a7834c1ba4fdd244a5e8aa4e537bd38aeae4b073aa"
    },
    {
      "anonymous": false,
      "inputs": [
        {
          "indexed": true,
          "name": "account",
          "type": "address"
        }
      ],
      "name": "PauserAdded",
      "type": "event",
      "signature": "0x6719d08c1888103bea251a4ed56406bd0c3e69723c8a1686e017e7bbe159b6f8"
    },
    {
      "anonymous": false,
      "inputs": [
        {
          "indexed": true,
          "name": "account",
          "type": "address"
        }
      ],
      "name": "PauserRemoved",
      "type": "event",
      "signature": "0xcd265ebaf09df2871cc7bd4133404a235ba12eff2041bb89d9c714a2621c7c7e"
    },
    {
      "anonymous": false,
      "inputs": [
        {
          "indexed": true,
          "name": "account",
          "type": "address"
        }
      ],
      "name": "MinterAdded",
      "type": "event",
      "signature": "0x6ae172837ea30b801fbfcdd4108aa1d5bf8ff775444fd70256b44e6bf3dfc3f6"
    },
    {
      "anonymous": false,
      "inputs": [
        {
          "indexed": true,
          "name": "account",
          "type": "address"
        }
      ],
      "name": "MinterRemoved",
      "type": "event",
      "signature": "0xe94479a9f7e1952cc78f2d6baab678adc1b772d936c6583def489e524cb66692"
    },
    {
      "anonymous": false,
      "inputs": [
        {
          "indexed": true,
          "name": "from",
          "type": "address"
        },
        {
          "indexed": true,
          "name": "to",
          "type": "address"
        },
        {
          "indexed": false,
          "name": "value",
          "type": "uint256"
        }
      ],
      "name": "Transfer",
      "type": "event",
      "signature": "0xddf252ad1be2c89b69c2b068fc378daa952ba7f163c4a11628f55a4df523b3ef"
    },
    {
      "anonymous": false,
      "inputs": [
        {
          "indexed": true,
          "name": "owner",
          "type": "address"
        },
        {
          "indexed": true,
          "name": "spender",
          "type": "address"
        },
        {
          "indexed": false,
          "name": "value",
          "type": "uint256"
        }
      ],
      "name": "Approval",
      "type": "event",
      "signature": "0x8c5be1e5ebec7d5bd14f71427d1e84f3dd0314c0f7b2291e5b200ac8c7c3b925"
    }
  ],
  "bytecode": "0x60806040523480156200001157600080fd5b50604051620014cf380380620014cf833981018060405260808110156200003757600080fd5b8101908080516401000000008111156200005057600080fd5b820160208101848111156200006457600080fd5b81516401000000008111828201871017156200007f57600080fd5b505092919060200180516401000000008111156200009c57600080fd5b82016020810184811115620000b057600080fd5b8151640100000000811182820187101715620000cb57600080fd5b50506020820151604090920151909350909150838383620000f53364010000000062000175810204565b6200010933640100000000620001c7810204565b6005805460ff1916905582516200012890600690602086019062000385565b5081516200013e90600790602085019062000385565b506008805460ff191660ff92909216919091179055506200016b9050338264010000000062000219810204565b505050506200042a565b6200019060038264010000000062000ffb620002d882021704565b604051600160a060020a038216907f6ae172837ea30b801fbfcdd4108aa1d5bf8ff775444fd70256b44e6bf3dfc3f690600090a250565b620001e260048264010000000062000ffb620002d882021704565b604051600160a060020a038216907f6719d08c1888103bea251a4ed56406bd0c3e69723c8a1686e017e7bbe159b6f890600090a250565b600160a060020a03821615156200022f57600080fd5b6002546200024c908264010000000062000f9d6200033382021704565b600255600160a060020a03821660009081526020819052604090205462000282908264010000000062000f9d6200033382021704565b600160a060020a0383166000818152602081815260408083209490945583518581529351929391927fddf252ad1be2c89b69c2b068fc378daa952ba7f163c4a11628f55a4df523b3ef9281900390910190a35050565b600160a060020a0381161515620002ee57600080fd5b6200030382826401000000006200034d810204565b156200030e57600080fd5b600160a060020a0316600090815260209190915260409020805460ff19166001179055565b6000828201838110156200034657600080fd5b9392505050565b6000600160a060020a03821615156200036557600080fd5b50600160a060020a03166000908152602091909152604090205460ff1690565b828054600181600116156101000203166002900490600052602060002090601f016020900481019282601f10620003c857805160ff1916838001178555620003f8565b82800160010185558215620003f8579182015b82811115620003f8578251825591602001919060010190620003db565b50620004069291506200040a565b5090565b6200042791905b8082111562000406576000815560010162000411565b90565b611095806200043a6000396000f3fe60806040526004361061013d5763ffffffff7c010000000000000000000000000000000000000000000000000000000060003504166306fdde038114610142578063095ea7b3146101cc57806318160ddd1461021957806323b872dd14610240578063313ce5671461028357806339509351146102ae5780633eaaf86b146102e75780633f4ba83a146102fc57806340c10f191461031357806342966c681461034c57806346fbf68e146103765780635c975abb146103a95780636ef8d66d146103be57806370a08231146103d357806379cc67901461040657806382dc1ec41461043f5780638456cb591461047257806395d89b4114610487578063983b2d561461049c57806398650275146104cf578063a457c2d7146104e4578063a9059cbb1461051d578063aa271e1a14610556578063dd62ed3e14610589575b600080fd5b34801561014e57600080fd5b506101576105c4565b6040805160208082528351818301528351919283929083019185019080838360005b83811015610191578181015183820152602001610179565b50505050905090810190601f1680156101be5780820380516001836020036101000a031916815260200191505b509250505060405180910390f35b3480156101d857600080fd5b50610205600480360360408110156101ef57600080fd5b50600160a060020a03813516906020013561065a565b604080519115158252519081900360200190f35b34801561022557600080fd5b5061022e61067e565b60408051918252519081900360200190f35b34801561024c57600080fd5b506102056004803603606081101561026357600080fd5b50600160a060020a03813581169160208101359091169060400135610684565b34801561028f57600080fd5b506102986106aa565b6040805160ff9092168252519081900360200190f35b3480156102ba57600080fd5b50610205600480360360408110156102d157600080fd5b50600160a060020a0381351690602001356106b3565b3480156102f357600080fd5b5061022e6106d0565b34801561030857600080fd5b506103116106d6565b005b34801561031f57600080fd5b506102056004803603604081101561033657600080fd5b50600160a060020a03813516906020013561073a565b34801561035857600080fd5b506103116004803603602081101561036f57600080fd5b5035610763565b34801561038257600080fd5b506102056004803603602081101561039957600080fd5b5035600160a060020a0316610770565b3480156103b557600080fd5b50610205610789565b3480156103ca57600080fd5b50610311610792565b3480156103df57600080fd5b5061022e600480360360208110156103f657600080fd5b5035600160a060020a031661079d565b34801561041257600080fd5b506103116004803603604081101561042957600080fd5b50600160a060020a0381351690602001356107b8565b34801561044b57600080fd5b506103116004803603602081101561046257600080fd5b5035600160a060020a03166107c6565b34801561047e57600080fd5b506103116107e3565b34801561049357600080fd5b50610157610849565b3480156104a857600080fd5b50610311600480360360208110156104bf57600080fd5b5035600160a060020a03166108aa565b3480156104db57600080fd5b506103116108c7565b3480156104f057600080fd5b506102056004803603604081101561050757600080fd5b50600160a060020a0381351690602001356108d0565b34801561052957600080fd5b506102056004803603604081101561054057600080fd5b50600160a060020a0381351690602001356108ed565b34801561056257600080fd5b506102056004803603602081101561057957600080fd5b5035600160a060020a031661090a565b34801561059557600080fd5b5061022e600480360360408110156105ac57600080fd5b50600160a060020a038135811691602001351661091d565b60068054604080516020601f60026000196101006001881615020190951694909404938401819004810282018101909252828152606093909290918301828280156106505780601f1061062557610100808354040283529160200191610650565b820191906000526020600020905b81548152906001019060200180831161063357829003601f168201915b5050505050905090565b60055460009060ff161561066d57600080fd5b6106778383610948565b9392505050565b60025490565b60055460009060ff161561069757600080fd5b6106a28484846109b4565b949350505050565b60085460ff1690565b60055460009060ff16156106c657600080fd5b6106778383610a6b565b60025481565b6106df33610770565b15156106ea57600080fd5b60055460ff1615156106fb57600080fd5b6005805460ff191690556040805133815290517f5db9ee0a495bf2e6ff9c91a7834c1ba4fdd244a5e8aa4e537bd38aeae4b073aa9181900360200190a1565b60006107453361090a565b151561075057600080fd5b61075a8383610b09565b50600192915050565b61076d3382610bb3565b50565b600061078360048363ffffffff610c5c16565b92915050565b60055460ff1690565b61079b33610c93565b565b600160a060020a031660009081526020819052604090205490565b6107c28282610cdb565b5050565b6107cf33610770565b15156107da57600080fd5b61076d81610d8b565b6107ec33610770565b15156107f757600080fd5b60055460ff161561080757600080fd5b6005805460ff191660011790556040805133815290517f62e78cea01bee320cd4e420270b5ea74000d11b0c9f74754ebdbfc544b05a2589181900360200190a1565b60078054604080516020601f60026000196101006001881615020190951694909404938401819004810282018101909252828152606093909290918301828280156106505780601f1061062557610100808354040283529160200191610650565b6108b33361090a565b15156108be57600080fd5b61076d81610dd3565b61079b33610e1b565b60055460009060ff16156108e357600080fd5b6106778383610e63565b60055460009060ff161561090057600080fd5b6106778383610eae565b600061078360038363ffffffff610c5c16565b600160a060020a03918216600090815260016020908152604080832093909416825291909152205490565b6000600160a060020a038316151561095f57600080fd5b336000818152600160209081526040808320600160a060020a038816808552908352928190208690558051868152905192939260008051602061104a833981519152929181900390910190a350600192915050565b600160a060020a03831660009081526001602090815260408083203384529091528120546109e8908363ffffffff610ebb16565b600160a060020a0385166000908152600160209081526040808320338452909152902055610a17848484610ed0565b600160a060020a03841660008181526001602090815260408083203380855290835292819020548151908152905192939260008051602061104a833981519152929181900390910190a35060019392505050565b6000600160a060020a0383161515610a8257600080fd5b336000908152600160209081526040808320600160a060020a0387168452909152902054610ab6908363ffffffff610f9d16565b336000818152600160209081526040808320600160a060020a03891680855290835292819020859055805194855251919360008051602061104a833981519152929081900390910190a350600192915050565b600160a060020a0382161515610b1e57600080fd5b600254610b31908263ffffffff610f9d16565b600255600160a060020a038216600090815260208190526040902054610b5d908263ffffffff610f9d16565b600160a060020a0383166000818152602081815260408083209490945583518581529351929391927fddf252ad1be2c89b69c2b068fc378daa952ba7f163c4a11628f55a4df523b3ef9281900390910190a35050565b600160a060020a0382161515610bc857600080fd5b600254610bdb908263ffffffff610ebb16565b600255600160a060020a038216600090815260208190526040902054610c07908263ffffffff610ebb16565b600160a060020a038316600081815260208181526040808320949094558351858152935191937fddf252ad1be2c89b69c2b068fc378daa952ba7f163c4a11628f55a4df523b3ef929081900390910190a35050565b6000600160a060020a0382161515610c7357600080fd5b50600160a060020a03166000908152602091909152604090205460ff1690565b610ca460048263ffffffff610faf16565b604051600160a060020a038216907fcd265ebaf09df2871cc7bd4133404a235ba12eff2041bb89d9c714a2621c7c7e90600090a250565b600160a060020a0382166000908152600160209081526040808320338452909152902054610d0f908263ffffffff610ebb16565b600160a060020a0383166000908152600160209081526040808320338452909152902055610d3d8282610bb3565b600160a060020a03821660008181526001602090815260408083203380855290835292819020548151908152905192939260008051602061104a833981519152929181900390910190a35050565b610d9c60048263ffffffff610ffb16565b604051600160a060020a038216907f6719d08c1888103bea251a4ed56406bd0c3e69723c8a1686e017e7bbe159b6f890600090a250565b610de460038263ffffffff610ffb16565b604051600160a060020a038216907f6ae172837ea30b801fbfcdd4108aa1d5bf8ff775444fd70256b44e6bf3dfc3f690600090a250565b610e2c60038263ffffffff610faf16565b604051600160a060020a038216907fe94479a9f7e1952cc78f2d6baab678adc1b772d936c6583def489e524cb6669290600090a250565b6000600160a060020a0383161515610e7a57600080fd5b336000908152600160209081526040808320600160a060020a0387168452909152902054610ab6908363ffffffff610ebb16565b600061075a338484610ed0565b600082821115610eca57600080fd5b50900390565b600160a060020a0382161515610ee557600080fd5b600160a060020a038316600090815260208190526040902054610f0e908263ffffffff610ebb16565b600160a060020a038085166000908152602081905260408082209390935590841681522054610f43908263ffffffff610f9d16565b600160a060020a038084166000818152602081815260409182902094909455805185815290519193928716927fddf252ad1be2c89b69c2b068fc378daa952ba7f163c4a11628f55a4df523b3ef92918290030190a3505050565b60008282018381101561067757600080fd5b600160a060020a0381161515610fc457600080fd5b610fce8282610c5c565b1515610fd957600080fd5b600160a060020a0316600090815260209190915260409020805460ff19169055565b600160a060020a038116151561101057600080fd5b61101a8282610c5c565b1561102457600080fd5b600160a060020a0316600090815260209190915260409020805460ff1916600117905556fe8c5be1e5ebec7d5bd14f71427d1e84f3dd0314c0f7b2291e5b200ac8c7c3b925a165627a7a723058205ee88147a9dead4e8d28758592947f65491704910c832a9851a72dea40f777b80029",
  "source": "pragma solidity ^0.5.0;\r\n\r\nimport \"../node_modules/openzeppelin-solidity/contracts/token/ERC20/ERC20.sol\";\r\nimport \"../node_modules/openzeppelin-solidity/contracts/token/ERC20/ERC20Detailed.sol\";\r\nimport \"../node_modules/openzeppelin-solidity/contracts/token/ERC20/ERC20Mintable.sol\";\r\nimport \"../node_modules/openzeppelin-solidity/contracts/token/ERC20/ERC20Burnable.sol\";\r\nimport \"../node_modules/openzeppelin-solidity/contracts/token/ERC20/ERC20Pausable.sol\";\r\n\r\ncontract EnerZToken is ERC20, ERC20Mintable, ERC20Burnable, ERC20Pausable, ERC20Detailed {\r\n    constructor(\r\n    string memory _name, \r\n    string memory _symbol, \r\n    uint8 _decimals,\r\n    uint256  _initialSupply \r\n        ) \r\n        ERC20Burnable()\r\n        ERC20Mintable()\r\n        ERC20Pausable()\r\n        ERC20()\r\n        ERC20Detailed(_name, _symbol, _decimals)  \r\n        public\r\n    {\r\n        _mint(msg.sender, _initialSupply);\r\n    }\r\n}",
  "sourcePath": "D:/code/enerZToken/contracts/enerZToken.sol",
  "compiler": {
    "name": "solc",
    "version": "0.5.0+commit.1d4f565a.Emscripten.clang"
  },
  "schemaVersion": "3.0.1",
  "updatedAt": "2019-02-11T11:00:24.734Z",
  "devdoc": {
    "methods": {
      "allowance(address,address)": {
        "details": "Function to check the amount of tokens that an owner allowed to a spender.",
        "params": {
          "owner": "address The address which owns the funds.",
          "spender": "address The address which will spend the funds."
        },
        "return": "A uint256 specifying the amount of tokens still available for the spender."
      },
      "balanceOf(address)": {
        "details": "Gets the balance of the specified address.",
        "params": {
          "owner": "The address to query the balance of."
        },
        "return": "An uint256 representing the amount owned by the passed address."
      },
      "burn(uint256)": {
        "details": "Burns a specific amount of tokens.",
        "params": {
          "value": "The amount of token to be burned."
        }
      },
      "burnFrom(address,uint256)": {
        "details": "Burns a specific amount of tokens from the target address and decrements allowance",
        "params": {
          "from": "address The address which you want to send tokens from",
          "value": "uint256 The amount of token to be burned"
        }
      },
      "decimals()": {
        "return": "the number of decimals of the token."
      },
      "mint(address,uint256)": {
        "details": "Function to mint tokens",
        "params": {
          "to": "The address that will receive the minted tokens.",
          "value": "The amount of tokens to mint."
        },
        "return": "A boolean that indicates if the operation was successful."
      },
      "name()": {
        "return": "the name of the token."
      },
      "pause()": {
        "details": "called by the owner to pause, triggers stopped state"
      },
      "paused()": {
        "return": "true if the contract is paused, false otherwise."
      },
      "symbol()": {
        "return": "the symbol of the token."
      },
      "totalSupply()": {
        "details": "Total number of tokens in existence"
      },
      "unpause()": {
        "details": "called by the owner to unpause, returns to normal state"
      }
    }
  },
  "userdoc": {
    "methods": {}
  }
}